:020000040000FA
:020000000029D5
:040002000034003492
:080008008B13A000030EA10000
:100010000B1911208C1A1F20210E8300A00E200E18
:1000200009002818192827088100071428140B1123
:10003000080026088100071028100B110800B80AD4
:100040003108B2003008B1002F08B0002E08AF0010
:100050002D08AE002C08AD002B08AC002A08AB0020
:100060002908AA001A08A9000A3A03193828080022
:100070000A303802031D5D282C302B02031D5D2839
:100080002C302D02031D5D282C302F02031D5D280E
:100090002C303102031D5D2830302A02B700303089
:1000A0002C02B40030302E02B50030303002B300E4
:1000B00030303202B600B8010800B80108000F392C
:1000C00082073034313432343334343435343634D6
:1000D0003734383439344134423443344434453489
:0200E0004634A4
:100200007821AC21BF21C721CC21D821E921EF21C0
:1002100025210930360203191329861F4221861B26
:100220002D214C2108290930330203191E290610FB
:10023000FD30A700F530A600442108290614F5304A
:10024000A700FD30A6004421082905305F20990051
:1002500073210A309900732108002408013C031D12
:100260000800A4013B08013C03193C29FD30A7000C
:10027000F530A600BB0A0800F530A700FD30A60047
:10028000BB010800241408000617340E203E950018
:10029000350E203E9B000800061383120313033023
:1002A0009F006E219F149F185329831203131E0869
:1002B000A300230C7F39203E9B00831203131330CD
:1002C0009F006E219F149F186329831203131E0839
:1002D000A200220C7F39203E950008005030BA0061
:1002E000BA0B702908003C30BA00BA0B7529080017
:1002F0008312031385018601870188018901831612
:100300000317880108148816890183160313213006
:10031000850080308600950081138701880189015E
:1003200083120313A401A501A201A301BB01A6012D
:10033000A701A801B301B401B501B601B801A90133
:10034000AA01AB01AC01AD01AE01AF01B001B10139
:10035000B201B701B90108008312031397131713F1
:10036000971217129715171597101710831203136A
:100370009D121D129D151D159D141D140800831638
:1003800003136400573081008312031308008312A3
:100390000313FF3092000800831603138C160B170B
:1003A0008B16BB309200831203138B170B110800BE
:1003B00083160313181318121815831603178711C1
:1003C00083160313193099009A01981683120313A8
:1003D00008008312031398171813181608008316C1
:1003E00003139F01831203131F149F141F119F11E6
:0803F0009F121F139F13080068
:02400E00D420BC
:02401000FF3F70
:00000001FF
