:020000040000FA
:020000000029D5
:040002000034003492
:080008008B13A000030EA10000
:100010000B1911208C1A2120210E8300A00E200E16
:10002000090024181A282308810007142414061331
:100030000B110800220881000710241006170B116D
:100040000800B10A2B08AC002A08AB002908AA0056
:100050002808A9002708A8002608A7002508A60048
:100060001A08A5000A3A0319362808000830310298
:10007000031D55282C302702031D55282C3029023A
:10008000031D55282C302B02031D55283030260225
:10009000AD0030302802AE0030302A02AF003030E0
:0E00A0002C02B0008800B1010800B101080078
:100200003321522165216D2172217E218F21003001
:10021000B002031D0D290610072906140930AD028E
:1002200003191829FD30A300B530A2001E210729AB
:10023000FA30A300B830A2001E2107292E0DFE3986
:100240002E0DFE392E0DFE392E0DFE39203E950065
:100250002F0DFE392F0DFE392F0DFE392F0DFE39D2
:10026000203E9B000800831203138501860187014D
:1002700088018901831603178801890183160313F6
:1002800085018030860095008113870188018901EE
:1002900083120313A201A301A401AD01AE01AF01BA
:1002A000B001080083120313971317139712171244
:1002B0009715171597101710831203139D121D120F
:1002C0009D151D159D141D1408008316031364004D
:1002D0005730810083120313080083120313FF3089
:1002E00092000800831603138C160B178B16BB3075
:1002F0009200831203138B170B110800831603134C
:100300001813181218158316031787118316031371
:10031000193099009A01981683120313080083126A
:0A03200003139817181318160800AD
:02400E00D420BC
:02401000FF3F70
:00000001FF
