:020000040000FA
:020000000029D5
:040002000034003492
:080008008B13A000030EA10000
:100010000B1911208C1A1F20210E8300A00E200E18
:1000200009002718192826088100071427140B1126
:10003000080025088100071027100B110800B40ADA
:100040002E08AF002D08AE002C08AD002B08AC0028
:100050002A08AB002908AA002808A9001A08A80045
:100060000A3A03193428080008303402031D5228C4
:100070002C302A02031D52282C302C02031D52283A
:100080002C302E02031D522830302902B1003030AE
:100090002B02B20030302D02B00030302F02B300FE
:0800A000B4010800B4010800DE
:100200006A219921AC21B421B921C521D621DC2153
:100210000930330203191229861F3921861B242134
:10022000432108290930300203191D290610FD3029
:10023000A600F530A5003B2108290614F530A600DC
:10024000FD30A5003B2108292408013C031D0800BE
:10025000A4013708013C03193329FD30A600F5300D
:10026000A500B70A0800F530A600FD30A500B701CB
:100270000800241408000617310E203E9500320EA7
:10028000203E9B00080006138312031303309F00D7
:1002900065219F149F184A29831203131E08A30087
:1002A000230C7F39203E9B008312031313309F00E1
:1002B00065219F149F185A29831203131E08A20058
:1002C000220C7F39203E950008003C30B600B60B6A
:1002D00067290800831203138501860187018801BD
:1002E000890183160317880108148816890183166B
:1002F00003138501803086009500811387018801F2
:10030000890183120313A401A201A301B701A5016E
:10031000A601A701B001B101B201B301B401A80166
:10032000A901AA01AB01AC01AD01AE01AF01B5015C
:1003300008008312031397131713971217129715B8
:10034000171597101710831203139D121D129D1578
:100350001D159D141D1408008316031364005730E7
:10036000810083120313080083120313FF309200ED
:100370000800831603138C160B178B16BB309200E4
:10038000831203138B170B11080083160313181322
:1003900018121815831603178711831603131930C3
:1003A00099009A019816831203130800831203130D
:1003B0009817181318160800831603139F01831249
:1003C00003131F149F141F119F119F121F139F13BC
:0203D000080023
:02400E00D420BC
:02401000FF3F70
:00000001FF
