:020000040000FA
:020000000029D5
:040002000034003492
:080008008B13A000030EA10000
:100010000B1911208C1A1F20210E8300A00E200E18
:1000200009002418192823088100071424140B112F
:10003000080022088100071024100B110800B10AE3
:100040002B08AC002A08AB002908AA002808A90040
:100050002708A8002608A7002508A6001A08A5005A
:100060000A3A03193428080008303102031D5328C6
:100070002C302702031D53282C302902031D53283E
:100080002C302B02031D532830302602AE003030B6
:100090002802AF0030302A02AD0030302C02B00010
:0A00A0008800B1010800B10108005A
:100200003821612174217C2181218D219E21093099
:10021000300203190C29072909302D020319172967
:100220000610FD30A300B530A2001E2107290614D8
:10023000FA30A300B830A2001E21072906172E0DA0
:100240007E39AE00B20A04303202031D1F29B2010A
:100250002E08203E95002F0D7E39AF00B20A0430E3
:100260003202031D2B29B2012F08203E9B000800FB
:100270008312031385018601870188018901831692
:1002800003178801890183160313850180308600D6
:100290009500811387018801890183120313A2014C
:1002A000A301A401AD01AE01AF01B001B101A501EF
:1002B000A601A701A801A901AA01AB01AC01B201E5
:1002C0000800831203139713171397121712971529
:1002D000171597101710831203139D121D129D15E9
:1002E0001D159D141D140800831603136400573058
:1002F000810083120313080083120313FF3092005E
:100300000800831603138C160B178B16BB30920054
:10031000831203138B170B11080083160313181392
:100320001812181583160317871183160313193033
:1003300099009A019816831203130800831203137D
:080340009817181318160800A5
:02400E00D420BC
:02401000FF3F70
:00000001FF
