:020000040000FA
:020000000029D5
:040002000034003492
:080008008B13A000030EA10000
:100010000B1911208C1A1F20210E8300A00E200E18
:1000200009002418192823088100071424140B112F
:10003000080022088100071024100B110800B10AE3
:100040002B08AC002A08AB002908AA002808A90040
:100050002708A8002608A7002508A6001A08A5005A
:100060000A3A03193428080008303102031D5328C6
:100070002C302702031D53282C302902031D53283E
:100080002C302B02031D532830302602AD003030B7
:100090002802AE0030302A02AF0030302C02B0000F
:0A00A000B10106170800B1010800C5
:1002000035215D21702178217D2189219A213008B5
:1002100088000930B00203190F29061007290614B7
:100220000930AD0203191A29FD30A300B530A20030
:1002300020210729FA30A300B830A2002021072985
:100240002E0DFE392E0DFE392E0DFE392E0DFE39E6
:10025000203E95002F0DFE392F0DFE392F0DFE3952
:100260002F0DFE39203E9B000800831203138501E9
:100270008601870188018901831603178801890196
:100280008316031385018030860095008113870152
:100290008801890183120313A201A301A401AD0106
:1002A000AE01AF01B001B101A501A601A701A801EE
:1002B000A901AA01AB01AC01080083120313971333
:1002C00017139712171297151715971017108312F7
:1002D00003139D121D129D151D159D141D1408005C
:1002E0008316031364005730810083120313080040
:1002F00083120313FF3092000800831603138C1639
:100300000B178B16BB309200831203138B170B1144
:1003100008008316031318131812181583160317F1
:10032000871183160313193099009A0198168312C6
:1003300003130800831203139817181318160800E4
:02400E00D420BC
:02401000FF3F70
:00000001FF
