:020000040000FA
:020000000029D5
:040002000034003492
:080008008B13A000030EA10000
:100010000C1B3A210B194A218C1A58210C1A282141
:10002000210E8300A00E200E09000F398207303404
:10003000313432343334343435343634373438347C
:0E004000393441344234433444344534463478
:10020000F22129223C2244224922572268226E22CE
:10021000831603130C168312031398210930370237
:1002200003191829861FE021861BCB21E921082903
:100230000930340203192229FD30A800F530A70047
:10024000E2210829F530A800FD30A700E2210829A5
:100250000130260203193129390815209900A60A10
:1002600034290A309900A601831603130C12831255
:1002700003130800251843291E08A2007F220C132F
:100280009F14251408001E08A3007B220C139F1442
:10029000251008002918522928088100071429145C
:1002A0000B11080027088100071029100B11080006
:1002B000BB0A3208B3003108B2003008B1002F0881
:1002C000B0002E08AF002D08AE002C08AD002B08A2
:1002D000AC002A08AB001A08AA000A3A03197129CF
:1002E00008000A303B02031D96292C302C02031D06
:1002F00096292C302E02031D96292C303002031D26
:1003000096292C303202031D962930302B02B8007A
:1003100030302D02B50030302F02B60030303102BF
:10032000B40030303302B700BB010800BB01080045
:1003300038083A02031D9D2908003808BA008312C4
:10034000031700308D00831203133808831203173C
:100350008C00831603178C130C158B1355308D00EE
:10036000AA308D008C148B170C1183120313B92142
:1003700008008B130030831203178D0083160317B8
:100380008C130C14831203170C0883120313B90087
:1003900088008B1708002408013C031D0800A401F5
:1003A0003E08013C0319DA29FD30A800F530A7000A
:1003B000BE0A0800F530A800FD30A700BE01080005
:1003C00024140800350E203E9500360E203E9B007A
:1003D0000800220C7F39203E9500230C7F39203EF7
:1003E0009B000800831203138501860187018801A1
:1003F000890183160317880108148816890183165A
:100400000313213085008030860095008113870119
:100410008801890183120313A401A501A601A20189
:10042000A301BE01A701A801A901B401B501B6014C
:10043000B701BB01AA01AB01AC01AD01AE01AF0137
:10044000B001B101B201B301B801B901BA01BC01F7
:100450000800831203139713171397121712971597
:10046000171597101710831203139D121D129D1557
:100470001D159D141D1408008316031364005730C6
:10048000810083120313080083120313FF309200CC
:100490000800831603130C178C160C160B178B16FB
:1004A000BB309200831203138B170B1108008316C5
:1004B00003131813181218158316031787118316C0
:1004C0000313193099009A01981683120313080038
:1004D00083120313981718131816080083160313B2
:1004E0009F01831203131F149F141F119F119F124A
:1004F0001F139F170800831203131F120800831293
:0605000003131F160800A2
:02400E00D420BC
:02401000FF3F70
:00000001FF
