:020000040000FA
:020000000029D5
:040002000034003492
:080008008B13A000030EA10000
:100010000C1B23210B1933218C1A4121210E830043
:06002000A00E200E0900F5
:10020000DB21122225222D2232223F225022562289
:1002100081210930370203191329861FC921861B42
:10022000B421D22108290930340203191D29FD30D7
:10023000A800F530A700CB210829F530A800FD3033
:10024000A700CB21082925182C291E08A200672207
:100250000C139F14251408001E08A30063220C131E
:100260009F142510080029183B292808810007142D
:1002700029140B11080027088100071029100B1101
:100280000800BB0A3208B3003108B2003008B100E0
:100290002F08B0002E08AF002D08AE002C08AD00CE
:1002A0002B08AC002A08AB001A08AA000A3A031966
:1002B0005A2908000A303B02031D7F292C302C02EA
:1002C000031D7F292C302E02031D7F292C30300284
:1002D000031D7F292C303202031D7F2930302B0271
:1002E000B80030302D02B50030302F02B60030306B
:1002F0003102B40030303302B700BB010800BB014B
:10030000080038083A02031D872906170800380834
:10031000BA008312031700308D00831203133808CC
:10032000831203178C00831603178C130C158B1381
:1003300055308D00AA308D008C148B170C11831250
:100340000313A32108008B130030831203178D00C1
:10035000831603178C130C14831203170C088312D3
:100360000313B9008B1708002408013C031D080083
:10037000A4013E08013C0319C329FD30A800F53053
:10038000A700BE0A0800F530A800FD30A700BE0196
:10039000080024140800350E203E9500360E203E3D
:1003A0009B000800220C7F39203E9500230C7F39EA
:1003B000203E9B00080083120313850186018701FC
:1003C000880189018316031788010814881689019A
:1003D0008316031321308500803086009500811339
:1003E00087018801890183120313A401A501A601D5
:1003F000A201A301BE01A701A801A901B401B50191
:10040000B601B701BB01AA01AB01AC01AD01AE0160
:10041000AF01B001B101B201B301B801B901BA0134
:10042000BC010800831203139713171397121712B6
:100430009715171597101710831203139D121D128D
:100440009D151D159D141D140800831603136400CB
:100450005730810083120313080083120313FF3007
:1004600092000800831603130C178C160B178B16BB
:10047000BB309200831203138B170B1108008316F5
:1004800003131813181218158316031787118316F0
:100490000313193099009A01981683120313080068
:1004A00083120313981718131816080083160313E2
:1004B0009F01831203131F149F141F119F119F127A
:1004C0001F139F170800831203131F1208008312C3
:0604D00003131F160800D3
:02400E00D420BC
:02401000FF3F70
:00000001FF
