:020000040000FA
:020000000029D5
:040002000034003492
:080008008B13A000030EA10000
:100010000C1B22210B1932218C1A4021210E830046
:06002000A00E200E0900F5
:10020000A721DE21F121F921FE210B221C2222222D
:100210000930370203191229861F9521861B802178
:100220009E2108290930340203191C29FD30A80039
:10023000F530A70097210829F530A800FD30A70068
:100240009721082925182B291E08A20033220C13F8
:100250009F14251408001E08A3002F220C139F14BE
:100260002510080029183A292808810007142914A4
:100270000B11080027088100071029100B11080036
:10028000BB0A3208B3003108B2003008B1002F08B1
:10029000B0002E08AF002D08AE002C08AD002B08D2
:1002A000AC002A08AB001A08AA000A3A0319592917
:1002B00008000A303B02031D7E292C302C02031D4E
:1002C0007E292C302E02031D7E292C303002031D86
:1002D0007E292C303202031D7E2930302B02B800DB
:1002E00030302D02B50030302F02B60030303102F0
:1002F000B40030303302B700BB010800BB01080076
:100300002408013C031D0800A4013E08013C031918
:100310008F29FD30A800F530A700BE0A0800F5308F
:10032000A800FD30A700BE01080024140800350E07
:10033000203E9500360E203E9B000800220C7F399F
:10034000203E9500230C7F39203E9B00080083123D
:10035000031385018601870188018901831603172C
:10036000880108148816890183160313213085003B
:1003700080308600950081138701880189018312EE
:100380000313A401A501A601A201A301BE01A701B7
:10039000A801A901B401B501B601B701BB01AA01C9
:1003A000AB01AC01AD01AE01AF01B001B101B201D1
:1003B000B301B801B901BA01BC01080083120313EB
:1003C00097131713971217129715171597101710E1
:1003D000831203139D121D129D151D159D141D14CE
:1003E000080083160313640057308100831203133F
:1003F000080083120313FF309200080083160313D2
:100400000C178C160B178B16BB309200831203133C
:100410008B170B11080083160313181318121815E5
:1004200083160317871183160313193099009A0155
:1004300098168312031308008312031398171813D6
:1004400018160800831603139F01831203131F1449
:100450009F141F119F119F121F139F1708008312D3
:0E04600003131F120800831203131F16080057
:02400E00D420BC
:02401000FF3F70
:00000001FF
