:020000040000FA
:020000000029D5
:040002000034003492
:080008008B13A000030EA10000
:100010000B1911208C1A1F20210E8300A00E200E18
:1000200009002818192827088100071428140B1123
:10003000080026088100071028100B110800BA0AD2
:100040003108B2003008B1002F08B0002E08AF0010
:100050002D08AE002C08AD002B08AC002A08AB0020
:100060002908AA001A08A9000A3A03193828080022
:100070000A303A02031D5D282C302B02031D5D2837
:100080002C302D02031D5D282C302F02031D5D280E
:100090002C303102031D5D2830302A02B700303089
:1000A0002C02B40030302E02B50030303002B300E4
:1000B00030303202B600BA010800BA0108000F3928
:1000C00082073034313432343334343435343634D6
:1000D0003734383439344134423443344434453489
:0200E0004634A4
:10020000A721DD21F021F821FD2109221A22202237
:1002100023210930360203191329861F7321861BF7
:100220005E217C2108290930330203191D29FD3084
:10023000A700F530A60075210829F530A700FD308C
:10024000A600752108293708390203190800370864
:10025000B9008312031700308D008312031337088F
:10026000831203178C00831603178C130C158B1342
:1002700055308D00AA308D008C148B170C11831211
:100280000313432108008B130030831203178D00E2
:10029000831603178C130C14831203170C08831294
:1002A0000313B8008B1738088800080005305F205A
:1002B0009900A2210A309900A22108002408013CDB
:1002C000031D0800A4013D08013C03196D29FD3000
:1002D000A700F530A600BD0A0800F530A700FD30E4
:1002E000A600BD01080024140800340E203E95002D
:1002F000350E203E9B0008008312031303309F003D
:100300009D219F149F188229831203131E08A300A6
:10031000230C7F39203E9B008312031313309F0070
:100320009D219F149F189229831203131E08A20077
:10033000220C7F39203E950008005030BC00BC0BD9
:100340009F2908003C30BC00BC0BA4290800831284
:10035000031385018601870188018901831603172C
:10036000880108148816890183160313213085003B
:1003700080308600950081138701880189018312EE
:100380000313A401A501A201A301BD01A601A701B8
:10039000A801B301B401B501B601BA01A901AA01CE
:1003A000AB01AC01AD01AE01AF01B001B101B201D1
:1003B000B701B801B901BB010800831203139713F9
:1003C00017139712171297151715971017108312F6
:1003D00003139D121D129D151D159D141D1408005B
:1003E000831603136400573081008312031308003F
:1003F00083120313FF3092000800831603138C1638
:100400000B178B16BB309200831203138B170B1143
:1004100008008316031318131812181583160317F0
:10042000871183160313193099009A0198168312C5
:1004300003130800831203139817181318160800E3
:10044000831603139F01831203131F149F141F119C
:0A0450009F119F121F139F13080055
:02400E00D420BC
:02401000FF3F70
:00000001FF
