:020000040000FA
:020000000029D5
:040002000034003492
:080008008B13A000030EA10000
:100010000C1B47210B1957218C1A65210C18242120
:10002000210E8300A00E200E09000F398207303404
:10003000313432343334343435343634373438347C
:0E004000393441344234433444344534463478
:10020000002237224A2252225B2260226E227F2263
:100210008522A5210930370203191429861FEE21F2
:10022000861BD921F72109290930340203191E2917
:10023000FD30A800F530A700F0210929F530A8000D
:10024000FD30A700F0210929FD308F008F308E008E
:100250000C102B2108000330260203194329023019
:10026000260203193F290130260203193B293C309D
:100270009900A60A08002C309900A60A0800503000
:100280009900A60A08000A309900A601080025185E
:1002900050291E08A20096220C139F142514080052
:1002A0001E08A30092220C139F1425100800291881
:1002B0005F2928088100071429140B11080027085A
:1002C0008100071029100B110800BB0A3208B30087
:1002D0003108B2003008B1002F08B0002E08AF007E
:1002E0002D08AE002C08AD002B08AC002A08AB008E
:1002F0001A08AA000A3A03197E2908000A303B02AC
:10030000031DA3292C302C02031DA3292C302E02FF
:10031000031DA3292C303002031DA3292C303202E7
:10032000031DA32930302B02B80030302D02B50058
:1003300030302F02B60030303102B400303033029A
:10034000B700BB010800BB01080038083A02031DD2
:10035000AB290613080006173808BA0083120317E2
:1003600000308D00831203133808831203178C00AA
:10037000831603178C130C158B1355308D00AA3080
:100380008D008C148B170C1183120313C8210800E5
:100390008B130030831203178D00831603178C1301
:1003A0000C14831203170C0883120313B9008B1764
:1003B00008002408013C031D0800A4013E08013C7C
:1003C0000319E829FD30A800F530A700BE0A08008F
:1003D000F530A800FD30A700BE0108002414080075
:1003E000350E203E9500360E203E9B000800220C64
:1003F0007F39203E9500230C7F39203E9B0008006A
:100400008312031385018601870188018901831600
:1004100003178801081488168901831603132130F5
:10042000850080308600950081138701880189014D
:1004300083120313A401A501A601A201A301BE0119
:10044000A701A801A901B401B501B601B701BB011B
:10045000AA01AB01AC01AD01AE01AF01B001B10128
:10046000B201B301B801B901BA01BC01080083129D
:100470000313971317139712171297151715971041
:100480001710831203139D121D129D151D159D1427
:100490001D14080083160313640057308100831273
:1004A000031308008312031390011014901090118D
:1004B00010169016080083120313FF3092000800F4
:1004C000831603130C140C178C160B178B16BB30EA
:1004D0009200831203138B170B110800831603136A
:1004E0001813181218158316031787118316031390
:1004F000193099009A019816831203130800831289
:1005000003139817181318160800831603139F0176
:10051000831203131F149F141F119F119F121F1387
:100520009F170800831203131F120800831203137E
:040530001F1608008A
:02400E00D420BC
:02401000FF3F70
:00000001FF
