:020000040000FA
:020000000029D5
:040002000034003492
:080008008B13A000030EA10000
:100010000B1911208C1A1F20210E8300A00E200E18
:1000200009002718192826088100071427140B1126
:10003000080025088100071027100B110800B40ADA
:100040002E08AF002D08AE002C08AD002B08AC0028
:100050002A08AB002908AA002808A9001A08A80045
:100060000A3A03193428080008303402031D5228C4
:100070002C302A02031D52282C302C02031D52283A
:100080002C302E02031D522830302902B1003030AE
:100090002B02B20030302D02B00030302F02B300FE
:0800A000B4010800B4010800DE
:100200006C219B21AE21B621BB21C721D821DE2143
:100210000930330203191229861F3921861B242134
:10022000462108290930300203191D290610FD3026
:10023000A600B530A5003B2108290614FA30A60017
:10024000B830A5003B2108292408013C031D080003
:10025000A4013708013C03193329FD30A600B5304D
:10026000A500B70A0800FA30A600B830A500B7010B
:100270000800241408000617B10E3108203E95002E
:100280008800B20E3208203E9B0008008312031340
:1002900003309F0067219F149F184C29831203137A
:1002A0001E08A300230C7F39203E9B0083120313FA
:1002B00013309F0067219F149F185C29831203133A
:1002C0001E08A200220C7F39203E950008003C3019
:1002D000B600B60B69290800831203138501860155
:1002E000870188018901831603178801081488167D
:1002F00089018316031385018030860095008113E0
:1003000087018801890183120313A401A201A301BB
:10031000B701A501A601A701B001B101B201B30166
:10032000B401A801A901AA01AB01AC01AD01AE0164
:10033000AF01B50108008312031397131713971227
:1003400017129715171597101710831203139D1284
:100350001D129D151D159D141D14080083160313F1
:1003600064005730810083120313080083120313C3
:10037000FF3092000800831603138C160B178B16A0
:10038000BB309200831203138B170B1108008316E6
:1003900003131813181218158316031787118316E1
:1003A0000313193099009A01981683120313080059
:1003B00083120313981718131816080083160313D3
:1003C0009F01831203131F149F141F119F119F126B
:0603D0001F139F1308003B
:02400E00D420BC
:02401000FF3F70
:00000001FF
