:020000040000FA
:020000000029D5
:040002000034003492
:080008008B13A000030EA10000
:100010000B190F20210E8300A00E200E09002D08C1
:10002000003C031921282E181B28FD3081000714DD
:100030002E140B110800B530810007102E100B1183
:100040000800AE182928FA3081000714AE140B11ED
:100050000800B83081000710AE100B1108000F39EE
:1000600082078834EB344C3449342B341934183437
:10007000CB3408340B340A3438349C3468341C34A0
:020080001E342C
:100200005021742187218F2194219E21861F1A213C
:10021000861B0D211C21252106292608013C031DD2
:100220000800A6012D08013C03191829AD0A080091
:10023000AD01080026140800220C7F39203E9500ED
:10024000230C7F39203E9B000800831203130330E8
:100250009F003E219F149F182B29831203131E0811
:10026000A3008312031313309F003E219F149F1895
:100270003729831203131E08A20008001730AF00AD
:10028000AF0B40290800FF30AF00AF0B4529FF300E
:10029000AF00AF0B4929FF30AF00AF0B4D2908006D
:1002A0008312031385018601870188018901831662
:1002B0000317880108148816890183160313213057
:1002C00085008030860095008113870188018901AF
:1002D00083120313A401A601A201A301AB01AC0187
:1002E000AD01AE01AF01080083120313971317137A
:1002F00097121712971517159710171083120313DB
:100300009D121D129D151D159D141D1408008316A8
:100310000313640057308100831203130800831213
:100320000313FF3092000800831603138B16BB30B3
:100330009200831203138B170B110800831603130B
:100340009F01831203131F149F141F119F119F12EB
:060350001F139F130800BB
:02400E00D420BC
:02401000FF3F70
:00000001FF
