:020000040000FA
:020000000029D5
:040002000034003492
:080008008B13A000030EA10000
:100010000B190F20210E8300A00E200E09002D08C1
:10002000003C031921282E181B28FD3081000714DD
:100030002E140B110800B530810007102E100B1183
:100040000800AE182928FA3081000714AE140B11ED
:100050000800B83081000710AE100B1108000F39EE
:1000600082078834EB344C3449342B341934183437
:10007000CB3408340B340A3438349C3468341C34A0
:020080001E342C
:100200004E21722185218D2192219C21861F192149
:10021000861B0C211B2106292608013C031D080012
:10022000A6012D08013C03191729AD0A0800AD01EC
:100230000800261408008312031303309F003C219A
:100240009F149F182129831203131E08A300230C57
:100250007F39203E9B008312031313309F003C2103
:100260009F149F183129831203131E08A200220C29
:100270007F39203E950008006430AF00AF0B3E2967
:100280000800FF30AF00AF0B4329FF30AF00AF0BCA
:100290004729FF30AF00AF0B4B290800831203132F
:1002A000850186018701880189018316031788016A
:1002B00008148816890183160313213085008030C5
:1002C0008600950081138701880189018312031339
:1002D000A401A601A201A301AB01AC01AD01AE01D5
:1002E000AF01080083120313971317139712171205
:1002F0009715171597101710831203139D121D12CF
:100300009D151D159D141D1408008316031364000C
:100310005730810083120313080083120313FF3048
:1003200092000800831603138B16BB3092008312D1
:1003300003138B170B110800831603139F018312FD
:1003400003131F149F141F119F119F121F139F133C
:020350000800A3
:02400E00D420BC
:02401000FF3F70
:00000001FF
