:020000040000FA
:020000000029D5
:040002000034003492
:080008008B13A000030EA10000
:100010000B1911208C1A1F20210E8300A00E200E18
:1000200009002818192827088100071428140B1123
:10003000080026088100071028100B110800B60AD6
:100040003008B1002F08B0002E08AF002D08AE0018
:100050002C08AD002B08AC002A08AB001A08AA0037
:100060000A3A03193428080008303602031D5328C1
:100070002C302C02031D53282C302E02031D532834
:100080002C303002031D532830302B02B2003030A8
:100090002D02B30030302F02B40030303102B500F1
:0A00A000B60106170800B6010800BB
:1002000074219B21AE21B621BB21C721D421E52138
:100210000930B50203191229861F3721861B2221B6
:10022000392108290930B20203191C29FD30A70021
:10023000B530A6005A210829FA30A700B830A60028
:100240005A2108292408013C031D0800A40125089F
:10025000013C03193129FD30A700B530A600A50ADD
:100260000800FA30A700B830A600A5010800241441
:1002700008008312031303309F006F219F149F18FF
:100280003F29831203131E08A300230C7F39203E4D
:100290009B008312031313309F006F219F149F183C
:1002A0004F29831203131E08A200220C7F39203E1F
:1002B00095000800330DFE39330DFE39330DFE393C
:1002C000330DFE39203E9500340DFE39340DFE39D4
:1002D000340DFE39340DFE39203E9B0008003C30C1
:1002E000A900A90B71290800831203138501860157
:1002F000870188018901831603178801081488166D
:100300008901831603132130850080308600950013
:10031000811387018801890183120313A401A201BB
:10032000A301A501A601A701A801A901B201B3017A
:10033000B401B50108008312031397131713971222
:1003400017129715171597101710831203139D1284
:100350001D129D151D159D141D14080083160313F1
:1003600064005730810083120313080083120313C3
:10037000FF3092000800831603138C160B178B16A0
:10038000BB309200831203138B170B1108008316E6
:1003900003139F01831203131F149F141F119F1136
:1003A0009F121F139F1308008316031318131812AC
:1003B0001815831603178711831603131930990034
:1003C0009A019816831203130800831203139817D7
:0603D000181318160800C6
:02400E00D420BC
:02401000FF3F70
:00000001FF
