:020000040000FA
:020000000029D5
:040002000034003492
:080008008B13A000030EA10000
:100010000C1B3A200B1913200C183320210E8300DF
:10002000A00E200E09002D08003C031925282E18CB
:100030001F28FD30810007142E140B110800B53065
:10004000810007102E100B110800AE182D28FA3071
:1000500081000714AE140B110800B830810007109E
:10006000AE100B110800FF308F0006308E000C1010
:100070004A200800241843281E08A20085210C13DA
:100080009F14241408001E08A30081210C139F1440
:1000900024100800220C7F39203E9500230C7F3964
:1000A000203E9B0008000F3982078834EB344C3423
:1000B00049342B3419341834CB3408340B340A3413
:0A00C00038349C3468341C341E34BC
:100200001C213F2152215A21632168217421861F1C
:100210001A21861B0D214A2007292608013C031DAF
:100220000800A6012D08013C03191829AD0A080091
:10023000AD0108002614080083120313850186010E
:10024000870188018901831603178801081488161D
:1002500089018316031321308500803086009500C4
:10026000811387018801890183120313A401A60168
:10027000A201A301AB01AC01AD01AE0108008312E4
:100280000313971317139712171297151715971033
:100290001710831203139D121D129D151D159D1419
:1002A0001D14080083160313640057308100831265
:1002B000031308008312031390011014901090117F
:1002C00010169016080083120313FF3092000800E6
:1002D000831603130C170B178B16BB309200831277
:1002E00003138B170B110800831603139F0183124E
:1002F00003131F149F141F119F119F121F139F1789
:100300000800831203131F120800831203131F1621
:020310000800E3
:02400E00D420BC
:02401000FF3F70
:00000001FF
